{
  "_format": "hh3-artifact-1",
  "contractName": "CommitRevealBounty",
  "sourceName": "contracts/CommitRevealBounty.sol",
  "abi": [
    {
      "anonymous": false,
      "inputs": [
        {
          "indexed": true,
          "internalType": "uint256",
          "name": "bountyId",
          "type": "uint256"
        },
        {
          "indexed": false,
          "internalType": "bytes",
          "name": "aiReview",
          "type": "bytes"
        }
      ],
      "name": "AllAnswersJudged",
      "type": "event"
    },
    {
      "anonymous": false,
      "inputs": [
        {
          "indexed": true,
          "internalType": "uint256",
          "name": "bountyId",
          "type": "uint256"
        },
        {
          "indexed": true,
          "internalType": "uint256",
          "name": "index",
          "type": "uint256"
        },
        {
          "indexed": true,
          "internalType": "address",
          "name": "submitter",
          "type": "address"
        }
      ],
      "name": "AnswerRevealed",
      "type": "event"
    },
    {
      "anonymous": false,
      "inputs": [
        {
          "indexed": true,
          "internalType": "uint256",
          "name": "bountyId",
          "type": "uint256"
        },
        {
          "indexed": true,
          "internalType": "address",
          "name": "owner",
          "type": "address"
        },
        {
          "indexed": false,
          "internalType": "string",
          "name": "title",
          "type": "string"
        },
        {
          "indexed": false,
          "internalType": "uint256",
          "name": "reward",
          "type": "uint256"
        }
      ],
      "name": "BountyCreated",
      "type": "event"
    },
    {
      "anonymous": false,
      "inputs": [
        {
          "indexed": true,
          "internalType": "uint256",
          "name": "bountyId",
          "type": "uint256"
        },
        {
          "indexed": true,
          "internalType": "uint256",
          "name": "index",
          "type": "uint256"
        },
        {
          "indexed": true,
          "internalType": "address",
          "name": "submitter",
          "type": "address"
        }
      ],
      "name": "CommitmentSubmitted",
      "type": "event"
    },
    {
      "anonymous": false,
      "inputs": [
        {
          "indexed": true,
          "internalType": "uint256",
          "name": "bountyId",
          "type": "uint256"
        },
        {
          "indexed": true,
          "internalType": "uint256",
          "name": "winnerIndex",
          "type": "uint256"
        },
        {
          "indexed": true,
          "internalType": "address",
          "name": "winner",
          "type": "address"
        },
        {
          "indexed": false,
          "internalType": "uint256",
          "name": "reward",
          "type": "uint256"
        }
      ],
      "name": "WinnerFinalized",
      "type": "event"
    },
    {
      "inputs": [],
      "name": "MAX_SUBMISSIONS",
      "outputs": [
        {
          "internalType": "uint256",
          "name": "",
          "type": "uint256"
        }
      ],
      "stateMutability": "view",
      "type": "function"
    },
    {
      "inputs": [
        {
          "internalType": "uint256",
          "name": "",
          "type": "uint256"
        }
      ],
      "name": "bounties",
      "outputs": [
        {
          "internalType": "address",
          "name": "owner",
          "type": "address"
        },
        {
          "internalType": "string",
          "name": "title",
          "type": "string"
        },
        {
          "internalType": "string",
          "name": "rubric",
          "type": "string"
        },
        {
          "internalType": "uint256",
          "name": "reward",
          "type": "uint256"
        },
        {
          "internalType": "uint256",
          "name": "submitDeadline",
          "type": "uint256"
        },
        {
          "internalType": "uint256",
          "name": "revealDeadline",
          "type": "uint256"
        },
        {
          "internalType": "bool",
          "name": "judged",
          "type": "bool"
        },
        {
          "internalType": "bool",
          "name": "finalized",
          "type": "bool"
        },
        {
          "internalType": "bytes",
          "name": "aiReview",
          "type": "bytes"
        },
        {
          "internalType": "uint256",
          "name": "winnerIndex",
          "type": "uint256"
        }
      ],
      "stateMutability": "view",
      "type": "function"
    },
    {
      "inputs": [
        {
          "internalType": "string",
          "name": "title",
          "type": "string"
        },
        {
          "internalType": "string",
          "name": "rubric",
          "type": "string"
        },
        {
          "internalType": "uint256",
          "name": "submitDeadline",
          "type": "uint256"
        },
        {
          "internalType": "uint256",
          "name": "revealDeadline",
          "type": "uint256"
        }
      ],
      "name": "createBounty",
      "outputs": [
        {
          "internalType": "uint256",
          "name": "bountyId",
          "type": "uint256"
        }
      ],
      "stateMutability": "payable",
      "type": "function"
    },
    {
      "inputs": [
        {
          "internalType": "uint256",
          "name": "bountyId",
          "type": "uint256"
        },
        {
          "internalType": "uint256",
          "name": "winnerIndex",
          "type": "uint256"
        }
      ],
      "name": "finalizeWinner",
      "outputs": [],
      "stateMutability": "nonpayable",
      "type": "function"
    },
    {
      "inputs": [
        {
          "internalType": "uint256",
          "name": "bountyId",
          "type": "uint256"
        }
      ],
      "name": "getBounty",
      "outputs": [
        {
          "internalType": "address",
          "name": "owner",
          "type": "address"
        },
        {
          "internalType": "string",
          "name": "title",
          "type": "string"
        },
        {
          "internalType": "string",
          "name": "rubric",
          "type": "string"
        },
        {
          "internalType": "uint256",
          "name": "reward",
          "type": "uint256"
        },
        {
          "internalType": "uint256",
          "name": "submitDeadline",
          "type": "uint256"
        },
        {
          "internalType": "uint256",
          "name": "revealDeadline",
          "type": "uint256"
        },
        {
          "internalType": "bool",
          "name": "judged",
          "type": "bool"
        },
        {
          "internalType": "bool",
          "name": "finalized",
          "type": "bool"
        },
        {
          "internalType": "uint256",
          "name": "submissionCount",
          "type": "uint256"
        },
        {
          "internalType": "uint256",
          "name": "winnerIndex",
          "type": "uint256"
        }
      ],
      "stateMutability": "view",
      "type": "function"
    },
    {
      "inputs": [
        {
          "internalType": "uint256",
          "name": "bountyId",
          "type": "uint256"
        },
        {
          "internalType": "uint256",
          "name": "index",
          "type": "uint256"
        }
      ],
      "name": "getCommitment",
      "outputs": [
        {
          "internalType": "address",
          "name": "submitter",
          "type": "address"
        },
        {
          "internalType": "bytes32",
          "name": "commitHash",
          "type": "bytes32"
        },
        {
          "internalType": "string",
          "name": "answer",
          "type": "string"
        },
        {
          "internalType": "bool",
          "name": "revealed",
          "type": "bool"
        }
      ],
      "stateMutability": "view",
      "type": "function"
    },
    {
      "inputs": [
        {
          "internalType": "uint256",
          "name": "bountyId",
          "type": "uint256"
        },
        {
          "internalType": "bytes",
          "name": "llmInput",
          "type": "bytes"
        }
      ],
      "name": "judgeAll",
      "outputs": [],
      "stateMutability": "nonpayable",
      "type": "function"
    },
    {
      "inputs": [],
      "name": "nextBountyId",
      "outputs": [
        {
          "internalType": "uint256",
          "name": "",
          "type": "uint256"
        }
      ],
      "stateMutability": "view",
      "type": "function"
    },
    {
      "inputs": [
        {
          "internalType": "uint256",
          "name": "bountyId",
          "type": "uint256"
        },
        {
          "internalType": "uint256",
          "name": "index",
          "type": "uint256"
        },
        {
          "internalType": "string",
          "name": "answer",
          "type": "string"
        },
        {
          "internalType": "bytes32",
          "name": "salt",
          "type": "bytes32"
        }
      ],
      "name": "revealAnswer",
      "outputs": [],
      "stateMutability": "nonpayable",
      "type": "function"
    },
    {
      "inputs": [
        {
          "internalType": "uint256",
          "name": "bountyId",
          "type": "uint256"
        },
        {
          "internalType": "bytes32",
          "name": "commitment",
          "type": "bytes32"
        }
      ],
      "name": "submitCommitment",
      "outputs": [],
      "stateMutability": "nonpayable",
      "type": "function"
    }
  ],
  "bytecode": "0x608060405260015f55348015610013575f80fd5b50611be5806100215f395ff3fe60806040526004361061008f575f3560e01c8063e31202c011610057578063e31202c014610162578063e6a3d9dc14610175578063ee8c4bbf14610194578063f6dab47b146101c9578063fd14fad4146101e8575f80fd5b80635a7722f1146100935780637164f0d6146100b45780638e789683146100ec578063d8964ee91461010e578063dc2f87441461012d575b5f80fd5b34801561009e575f80fd5b506100b26100ad366004611323565b6101fc565b005b3480156100bf575f80fd5b506100d36100ce366004611323565b6104d0565b6040516100e39493929190611390565b60405180910390f35b3480156100f7575f80fd5b50610100600a81565b6040519081526020016100e3565b348015610119575f80fd5b506100b261012836600461140e565b610603565b348015610138575f80fd5b5061014c610147366004611456565b61085a565b6040516100e39a9998979695949392919061146d565b6101006101703660046114f5565b610a50565b348015610180575f80fd5b506100b261018f366004611323565b610b9a565b34801561019f575f80fd5b506101b36101ae366004611456565b610daf565b6040516100e39a9998979695949392919061156d565b3480156101d4575f80fd5b506100b26101e33660046115e2565b610f8b565b3480156101f3575f80fd5b506101005f5481565b5f8281526001602052604090205482906001600160a01b031661023a5760405162461bcd60e51b815260040161023190611638565b60405180910390fd5b5f8381526001602052604090205483906001600160a01b031633146102945760405162461bcd60e51b815260206004820152601060248201526f3737ba103137bab73a3c9037bbb732b960811b6044820152606401610231565b5f848152600160205260409020600681015460ff166102e65760405162461bcd60e51b815260206004820152600e60248201526d1b9bdd081a9d5919d959081e595d60921b6044820152606401610231565b6006810154610100900460ff16156103345760405162461bcd60e51b8152602060048201526011602482015270185b1c9958591e48199a5b985b1a5e9959607a1b6044820152606401610231565b80600901848154811061034957610349611662565b5f91825260209091206003600490920201015460ff166103a35760405162461bcd60e51b81526020600482015260156024820152741dda5b9b995c88191a59081b9bdd081c995d99585b605a1b6044820152606401610231565b60068101805461ff001916610100179055600881018490556009810180545f9190869081106103d4576103d4611662565b5f918252602082206004919091020154600384018054908390556040516001600160a01b0390921693509190839083908381818185875af1925050503d805f811461043a576040519150601f19603f3d011682016040523d82523d5f602084013e61043f565b606091505b50509050806104815760405162461bcd60e51b815260206004820152600e60248201526d1c185e5b595b9d0819985a5b195960921b6044820152606401610231565b826001600160a01b031687897f2eb0120759ae6dd1505f3f092609ec7e75433fb2401ad648ebeb5bd4bd55e5b6856040516104be91815260200190565b60405180910390a45050505050505050565b5f828152600160205260408120548190606090829086906001600160a01b031661050c5760405162461bcd60e51b815260040161023190611638565b5f87815260016020526040812060090180548890811061052e5761052e611662565b5f91825260209091206004909102018054600182015460038301546002840180549495506001600160a01b039093169391929160ff90911690829061057290611676565b80601f016020809104026020016040519081016040528092919081815260200182805461059e90611676565b80156105e95780601f106105c0576101008083540402835291602001916105e9565b820191905f5260205f20905b8154815290600101906020018083116105cc57829003601f168201915b505050505091509550955095509550505092959194509250565b5f8381526001602052604090205483906001600160a01b03166106385760405162461bcd60e51b815260040161023190611638565b5f8481526001602052604090205484906001600160a01b031633146106925760405162461bcd60e51b815260206004820152601060248201526f3737ba103137bab73a3c9037bbb732b960811b6044820152606401610231565b5f85815260016020526040902060058101544210156106eb5760405162461bcd60e51b81526020600482015260156024820152743932bb32b0b610383430b9b2903737ba1037bb32b960591b6044820152606401610231565b600681015460ff16156107315760405162461bcd60e51b815260206004820152600e60248201526d185b1c9958591e481a9d5919d95960921b6044820152606401610231565b60098101546107735760405162461bcd60e51b815260206004820152600e60248201526d6e6f207375626d697373696f6e7360901b6044820152606401610231565b5f6107b561080287878080601f0160208091040260200160405190810160405280939291908181526020018383808284375f9201919091525061124f92505050565b90505f805f838060200190518101906107ce91906117f1565b5093505092509250821581906107f75760405162461bcd60e51b815260040161023191906118ae565b5060068501805460ff19166001179055600785016108158382611913565b50897fb51288ae628dca25614026175dc22a78631acc1a31f034c68c3fa241ca0fd05c8360405161084691906118ae565b60405180910390a250505050505050505050565b600160208190525f9182526040909120805491810180546001600160a01b039093169261088690611676565b80601f01602080910402602001604051908101604052809291908181526020018280546108b290611676565b80156108fd5780601f106108d4576101008083540402835291602001916108fd565b820191905f5260205f20905b8154815290600101906020018083116108e057829003601f168201915b50505050509080600201805461091290611676565b80601f016020809104026020016040519081016040528092919081815260200182805461093e90611676565b80156109895780601f1061096057610100808354040283529160200191610989565b820191905f5260205f20905b81548152906001019060200180831161096c57829003601f168201915b50505050600383015460048401546005850154600686015460078701805496979496939550919360ff80831694610100909304169290916109c990611676565b80601f01602080910402602001604051908101604052809291908181526020018280546109f590611676565b8015610a405780601f10610a1757610100808354040283529160200191610a40565b820191905f5260205f20905b815481529060010190602001808311610a2357829003601f168201915b505050505090806008015490508a565b5f803411610a925760405162461bcd60e51b815260206004820152600f60248201526e1c995dd85c99081c995c5d5a5c9959608a1b6044820152606401610231565b828211610ae15760405162461bcd60e51b815260206004820152601b60248201527f72657665616c206d757374206265206166746572207375626d697400000000006044820152606401610231565b5f80549080610aef836119e7565b909155505f81815260016020819052604090912080546001600160a01b031916331781559192508101610b23888a836119ff565b5060028101610b338688836119ff565b50346003820181905560048201859055600582018490555f196008830155604051339184917f64b439309954f148e681118e8f6556d39f6204a461e3307190a6928618ff265591610b87918d918d91611ab9565b60405180910390a3509695505050505050565b5f8281526001602052604090205482906001600160a01b0316610bcf5760405162461bcd60e51b815260040161023190611638565b5f83815260016020526040902060048101544210610c275760405162461bcd60e51b815260206004820152601560248201527439bab136b4b9b9b4b7b710383430b9b29037bb32b960591b6044820152606401610231565b600681015460ff16158015610c4657506006810154610100900460ff16155b610c825760405162461bcd60e51b815260206004820152600d60248201526c189bdd5b9d1e4818db1bdcd959609a1b6044820152606401610231565b6009810154600a11610ccd5760405162461bcd60e51b8152602060048201526014602482015273746f6f206d616e79207375626d697373696f6e7360601b6044820152606401610231565b604080516080810182523381526020808201868152835180830185525f808252948401908152606084018590526009860180546001808201835591875293909520845160049094020180546001600160a01b0319166001600160a01b0390941693909317835590519382019390935591519091906002820190610d509082611913565b50606091909101516003909101805460ff191691151591909117905560098101543390610d7f90600190611af0565b60405186907f94cdee4274a7d9f10a75de5b2a8af2dc478a097d4829621fc779705fbeb040c2905f90a450505050565b5f81815260016020526040812054606090819083908190819081908190819081908b906001600160a01b0316610df75760405162461bcd60e51b815260040161023190611638565b5f8c81526001602081905260409091208054600382015460048301546005840154600685015460098601546008870154978701805497986001600160a01b0390971697909660028a019695949360ff8082169461010090920416929091908990610e6090611676565b80601f0160208091040260200160405190810160405280929190818152602001828054610e8c90611676565b8015610ed75780601f10610eae57610100808354040283529160200191610ed7565b820191905f5260205f20905b815481529060010190602001808311610eba57829003601f168201915b50505050509850878054610eea90611676565b80601f0160208091040260200160405190810160405280929190818152602001828054610f1690611676565b8015610f615780601f10610f3857610100808354040283529160200191610f61565b820191905f5260205f20905b815481529060010190602001808311610f4457829003601f168201915b505050505097509b509b509b509b509b509b509b509b509b509b5050509193959799509193959799565b5f8581526001602052604090205485906001600160a01b0316610fc05760405162461bcd60e51b815260040161023190611638565b5f86815260016020526040902060048101544210156110215760405162461bcd60e51b815260206004820152601860248201527f72657665616c207068617365206e6f74207374617274656400000000000000006044820152606401610231565b806005015442106110685760405162461bcd60e51b81526020600482015260116024820152703932bb32b0b610383430b9b29037bb32b960791b6044820152606401610231565b600681015460ff1615801561108757506006810154610100900460ff16155b6110c35760405162461bcd60e51b815260206004820152600d60248201526c189bdd5b9d1e4818db1bdcd959609a1b6044820152606401610231565b5f8160090187815481106110d9576110d9611662565b5f918252602090912060049091020180549091506001600160a01b0316331461113a5760405162461bcd60e51b81526020600482015260136024820152721b9bdd081e5bdd5c8818dbdb5b5a5d1b595b9d606a1b6044820152606401610231565b600381015460ff16156111825760405162461bcd60e51b815260206004820152601060248201526f185b1c9958591e481c995d99585b195960821b6044820152606401610231565b5f868686338c60405160200161119c959493929190611b03565b604051602081830303815290604052805190602001209050816001015481146111f75760405162461bcd60e51b815260206004820152600d60248201526c0d0c2e6d040dad2e6dac2e8c6d609b1b6044820152606401610231565b600282016112068789836119ff565b5060038201805460ff19166001179055604051339089908b907f30cd907c52cb0d98c4502ca97784ad8dd7813786ea1a7cce6e1594fe96c20b16905f90a4505050505050505050565b60605f80846001600160a01b03168460405161126b9190611b34565b5f604051808303815f865af19150503d805f81146112a4576040519150601f19603f3d011682016040523d82523d5f602084013e6112a9565b606091505b5091509150816112bb57805160208201fd5b6001600160a01b03851661080114806112de57506001600160a01b038516610802145b806112f357506001600160a01b03851661081b145b15611319575f8180602001905181019061130d9190611b4f565b945061131d9350505050565b9150505b92915050565b5f8060408385031215611334575f80fd5b50508035926020909101359150565b5f5b8381101561135d578181015183820152602001611345565b50505f910152565b5f815180845261137c816020860160208601611343565b601f01601f19169290920160200192915050565b60018060a01b0385168152836020820152608060408201525f6113b66080830185611365565b9050821515606083015295945050505050565b5f8083601f8401126113d9575f80fd5b50813567ffffffffffffffff8111156113f0575f80fd5b602083019150836020828501011115611407575f80fd5b9250929050565b5f805f60408486031215611420575f80fd5b83359250602084013567ffffffffffffffff81111561143d575f80fd5b611449868287016113c9565b9497909650939450505050565b5f60208284031215611466575f80fd5b5035919050565b6001600160a01b038b168152610140602082018190525f906114918382018d611365565b905082810360408401526114a5818c611365565b90508960608401528860808401528760a084015286151560c084015285151560e08401528281036101008401526114dc8186611365565b915050826101208301529b9a5050505050505050505050565b5f805f805f806080878903121561150a575f80fd5b863567ffffffffffffffff80821115611521575f80fd5b61152d8a838b016113c9565b90985096506020890135915080821115611545575f80fd5b5061155289828a016113c9565b979a9699509760408101359660609091013595509350505050565b6001600160a01b038b168152610140602082018190525f906115918382018d611365565b905082810360408401526115a5818c611365565b606084019a909a525050608081019690965260a086019490945291151560c0850152151560e0840152610100830152610120909101529392505050565b5f805f805f608086880312156115f6575f80fd5b8535945060208601359350604086013567ffffffffffffffff81111561161a575f80fd5b611626888289016113c9565b96999598509660600135949350505050565b60208082526010908201526f189bdd5b9d1e481b9bdd08199bdd5b9960821b604082015260600190565b634e487b7160e01b5f52603260045260245ffd5b600181811c9082168061168a57607f821691505b6020821081036116a857634e487b7160e01b5f52602260045260245ffd5b50919050565b634e487b7160e01b5f52604160045260245ffd5b5f82601f8301126116d1575f80fd5b815167ffffffffffffffff808211156116ec576116ec6116ae565b604051601f8301601f19908116603f01168101908282118183101715611714576117146116ae565b8160405283815286602085880101111561172c575f80fd5b61173d846020830160208901611343565b9695505050505050565b5f60608284031215611757575f80fd5b6040516060810167ffffffffffffffff828210818311171561177b5761177b6116ae565b816040528293508451915080821115611792575f80fd5b61179e868387016116c2565b835260208501519150808211156117b3575f80fd5b6117bf868387016116c2565b602084015260408501519150808211156117d7575f80fd5b506117e4858286016116c2565b6040830152505092915050565b5f805f805f60a08688031215611805575f80fd5b85518015158114611814575f80fd5b602087015190955067ffffffffffffffff80821115611831575f80fd5b61183d89838a016116c2565b95506040880151915080821115611852575f80fd5b61185e89838a016116c2565b94506060880151915080821115611873575f80fd5b61187f89838a016116c2565b93506080880151915080821115611894575f80fd5b506118a188828901611747565b9150509295509295909350565b602081525f6118c06020830184611365565b9392505050565b601f82111561190e57805f5260205f20601f840160051c810160208510156118ec5750805b601f840160051c820191505b8181101561190b575f81556001016118f8565b50505b505050565b815167ffffffffffffffff81111561192d5761192d6116ae565b6119418161193b8454611676565b846118c7565b602080601f831160018114611974575f841561195d5750858301515b5f19600386901b1c1916600185901b1785556119cb565b5f85815260208120601f198616915b828110156119a257888601518255948401946001909101908401611983565b50858210156119bf57878501515f19600388901b60f8161c191681555b505060018460011b0185555b505050505050565b634e487b7160e01b5f52601160045260245ffd5b5f600182016119f8576119f86119d3565b5060010190565b67ffffffffffffffff831115611a1757611a176116ae565b611a2b83611a258354611676565b836118c7565b5f601f841160018114611a5c575f8515611a455750838201355b5f19600387901b1c1916600186901b17835561190b565b5f83815260208120601f198716915b82811015611a8b5786850135825560209485019460019092019101611a6b565b5086821015611aa7575f1960f88860031b161c19848701351681555b505060018560011b0183555050505050565b60408152826040820152828460608301375f606084830101525f6060601f19601f8601168301019050826020830152949350505050565b8181038181111561131d5761131d6119d3565b8486823790930191825260601b6bffffffffffffffffffffffff191660208201526034810191909152605401919050565b5f8251611b45818460208701611343565b9190910192915050565b5f8060408385031215611b60575f80fd5b825167ffffffffffffffff80821115611b77575f80fd5b611b83868387016116c2565b93506020850151915080821115611b98575f80fd5b50611ba5858286016116c2565b915050925092905056fea2646970667358221220a6cfeab66b551ff8082f025fab8a4dbe4fa41a03cbcc8beb32f558c5ff44dc0664736f6c63430008180033",
  "linkReferences": {},
  "deployedLinkReferences": {},
  "immutableReferences": {},
  "inputSourceName": "project/contracts/CommitRevealBounty.sol",
  "buildInfoId": "solc-0_8_24-937a675409404902af6e45da80e1d437ae5d1487"
}